Archive member included to satisfy reference by file (symbol)

d:/atmel studio/7.0/toolchain/avr8/avr8-gnu-toolchain/bin/../lib/gcc/avr/5.4.0/../../../../avr/lib/avr6\libm.a(addsf3.o)
                              src/main.o (__subsf3)
d:/atmel studio/7.0/toolchain/avr8/avr8-gnu-toolchain/bin/../lib/gcc/avr/5.4.0/../../../../avr/lib/avr6\libm.a(addsf3x.o)
                              d:/atmel studio/7.0/toolchain/avr8/avr8-gnu-toolchain/bin/../lib/gcc/avr/5.4.0/../../../../avr/lib/avr6\libm.a(addsf3.o) (__addsf3x)
d:/atmel studio/7.0/toolchain/avr8/avr8-gnu-toolchain/bin/../lib/gcc/avr/5.4.0/../../../../avr/lib/avr6\libm.a(fixunssfsi.o)
                              src/main.o (__fixunssfsi)
d:/atmel studio/7.0/toolchain/avr8/avr8-gnu-toolchain/bin/../lib/gcc/avr/5.4.0/../../../../avr/lib/avr6\libm.a(floatsisf.o)
                              src/main.o (__floatunsisf)
d:/atmel studio/7.0/toolchain/avr8/avr8-gnu-toolchain/bin/../lib/gcc/avr/5.4.0/../../../../avr/lib/avr6\libm.a(fp_inf.o)
                              d:/atmel studio/7.0/toolchain/avr8/avr8-gnu-toolchain/bin/../lib/gcc/avr/5.4.0/../../../../avr/lib/avr6\libm.a(addsf3x.o) (__fp_inf)
d:/atmel studio/7.0/toolchain/avr8/avr8-gnu-toolchain/bin/../lib/gcc/avr/5.4.0/../../../../avr/lib/avr6\libm.a(fp_nan.o)
                              d:/atmel studio/7.0/toolchain/avr8/avr8-gnu-toolchain/bin/../lib/gcc/avr/5.4.0/../../../../avr/lib/avr6\libm.a(addsf3x.o) (__fp_nan)
d:/atmel studio/7.0/toolchain/avr8/avr8-gnu-toolchain/bin/../lib/gcc/avr/5.4.0/../../../../avr/lib/avr6\libm.a(fp_pscA.o)
                              d:/atmel studio/7.0/toolchain/avr8/avr8-gnu-toolchain/bin/../lib/gcc/avr/5.4.0/../../../../avr/lib/avr6\libm.a(addsf3x.o) (__fp_pscA)
d:/atmel studio/7.0/toolchain/avr8/avr8-gnu-toolchain/bin/../lib/gcc/avr/5.4.0/../../../../avr/lib/avr6\libm.a(fp_pscB.o)
                              d:/atmel studio/7.0/toolchain/avr8/avr8-gnu-toolchain/bin/../lib/gcc/avr/5.4.0/../../../../avr/lib/avr6\libm.a(addsf3x.o) (__fp_pscB)
d:/atmel studio/7.0/toolchain/avr8/avr8-gnu-toolchain/bin/../lib/gcc/avr/5.4.0/../../../../avr/lib/avr6\libm.a(fp_round.o)
                              d:/atmel studio/7.0/toolchain/avr8/avr8-gnu-toolchain/bin/../lib/gcc/avr/5.4.0/../../../../avr/lib/avr6\libm.a(addsf3.o) (__fp_round)
d:/atmel studio/7.0/toolchain/avr8/avr8-gnu-toolchain/bin/../lib/gcc/avr/5.4.0/../../../../avr/lib/avr6\libm.a(fp_split3.o)
                              d:/atmel studio/7.0/toolchain/avr8/avr8-gnu-toolchain/bin/../lib/gcc/avr/5.4.0/../../../../avr/lib/avr6\libm.a(addsf3x.o) (__fp_split3)
d:/atmel studio/7.0/toolchain/avr8/avr8-gnu-toolchain/bin/../lib/gcc/avr/5.4.0/../../../../avr/lib/avr6\libm.a(fp_zero.o)
                              d:/atmel studio/7.0/toolchain/avr8/avr8-gnu-toolchain/bin/../lib/gcc/avr/5.4.0/../../../../avr/lib/avr6\libm.a(addsf3x.o) (__fp_zero)
d:/atmel studio/7.0/toolchain/avr8/avr8-gnu-toolchain/bin/../lib/gcc/avr/5.4.0/../../../../avr/lib/avr6\libm.a(mulsf3.o)
                              src/main.o (__mulsf3)
d:/atmel studio/7.0/toolchain/avr8/avr8-gnu-toolchain/bin/../lib/gcc/avr/5.4.0/../../../../avr/lib/avr6\libm.a(mulsf3x.o)
                              d:/atmel studio/7.0/toolchain/avr8/avr8-gnu-toolchain/bin/../lib/gcc/avr/5.4.0/../../../../avr/lib/avr6\libm.a(mulsf3.o) (__mulsf3x)
d:/atmel studio/7.0/toolchain/avr8/avr8-gnu-toolchain/bin/../lib/gcc/avr/5.4.0/avr6\libgcc.a(_udivmodsi4.o)
                              src/ASF/mega/drivers/usart/usart_megarf.o (__udivmodsi4)
d:/atmel studio/7.0/toolchain/avr8/avr8-gnu-toolchain/bin/../lib/gcc/avr/5.4.0/avr6\libgcc.a(_exit.o)
                              D:/Atmel Studio/7.0/Packs/atmel/ATmega_DFP/1.3.300/gcc/dev/atmega256rfr2/avr6/crtatmega256rfr2.o (exit)
d:/atmel studio/7.0/toolchain/avr8/avr8-gnu-toolchain/bin/../lib/gcc/avr/5.4.0/avr6\libgcc.a(_tablejump2.o)
                              src/ASF/mega/drivers/twi/twi_megarf.o (__tablejump2__)
d:/atmel studio/7.0/toolchain/avr8/avr8-gnu-toolchain/bin/../lib/gcc/avr/5.4.0/avr6\libgcc.a(_copy_data.o)
                              src/ASF/common/utils/unit_test/suite.o (__do_copy_data)
d:/atmel studio/7.0/toolchain/avr8/avr8-gnu-toolchain/bin/../lib/gcc/avr/5.4.0/avr6\libgcc.a(_clear_bss.o)
                              src/ASF/common/utils/stdio/read.o (__do_clear_bss)
d:/atmel studio/7.0/toolchain/avr8/avr8-gnu-toolchain/bin/../lib/gcc/avr/5.4.0/avr6\libgcc.a(_adddi3_s8.o)
                              src/main.o (__adddi3_s8)
d:/atmel studio/7.0/toolchain/avr8/avr8-gnu-toolchain/bin/../lib/gcc/avr/5.4.0/avr6\libgcc.a(_cmpdi2_s8.o)
                              src/main.o (__cmpdi2_s8)
d:/atmel studio/7.0/toolchain/avr8/avr8-gnu-toolchain/bin/../lib/gcc/avr/5.4.0/../../../../avr/lib/avr6\libc.a(setjmp.o)
                              src/ASF/common/utils/unit_test/suite.o (setjmp)
d:/atmel studio/7.0/toolchain/avr8/avr8-gnu-toolchain/bin/../lib/gcc/avr/5.4.0/../../../../avr/lib/avr6\libc.a(fdevopen.o)
                              src/main.o (fdevopen)
d:/atmel studio/7.0/toolchain/avr8/avr8-gnu-toolchain/bin/../lib/gcc/avr/5.4.0/../../../../avr/lib/avr6\libc.a(fputc.o)
                              src/ASF/common/utils/unit_test/suite.o (fputc)
d:/atmel studio/7.0/toolchain/avr8/avr8-gnu-toolchain/bin/../lib/gcc/avr/5.4.0/../../../../avr/lib/avr6\libc.a(iob.o)
                              src/ASF/common/utils/unit_test/suite.o (__iob)
d:/atmel studio/7.0/toolchain/avr8/avr8-gnu-toolchain/bin/../lib/gcc/avr/5.4.0/../../../../avr/lib/avr6\libc.a(printf.o)
                              src/ASF/common/utils/unit_test/suite.o (printf)
d:/atmel studio/7.0/toolchain/avr8/avr8-gnu-toolchain/bin/../lib/gcc/avr/5.4.0/../../../../avr/lib/avr6\libc.a(puts.o)
                              src/ASF/common/utils/unit_test/suite.o (puts)
d:/atmel studio/7.0/toolchain/avr8/avr8-gnu-toolchain/bin/../lib/gcc/avr/5.4.0/../../../../avr/lib/avr6\libc.a(sprintf.o)
                              src/main.o (sprintf)
d:/atmel studio/7.0/toolchain/avr8/avr8-gnu-toolchain/bin/../lib/gcc/avr/5.4.0/../../../../avr/lib/avr6\libc.a(vfprintf_std.o)
                              src/ASF/common/utils/unit_test/suite.o (vfprintf)
d:/atmel studio/7.0/toolchain/avr8/avr8-gnu-toolchain/bin/../lib/gcc/avr/5.4.0/../../../../avr/lib/avr6\libc.a(calloc.o)
                              d:/atmel studio/7.0/toolchain/avr8/avr8-gnu-toolchain/bin/../lib/gcc/avr/5.4.0/../../../../avr/lib/avr6\libc.a(fdevopen.o) (calloc)
d:/atmel studio/7.0/toolchain/avr8/avr8-gnu-toolchain/bin/../lib/gcc/avr/5.4.0/../../../../avr/lib/avr6\libc.a(malloc.o)
                              d:/atmel studio/7.0/toolchain/avr8/avr8-gnu-toolchain/bin/../lib/gcc/avr/5.4.0/../../../../avr/lib/avr6\libc.a(calloc.o) (malloc)
d:/atmel studio/7.0/toolchain/avr8/avr8-gnu-toolchain/bin/../lib/gcc/avr/5.4.0/../../../../avr/lib/avr6\libc.a(strnlen_P.o)
                              d:/atmel studio/7.0/toolchain/avr8/avr8-gnu-toolchain/bin/../lib/gcc/avr/5.4.0/../../../../avr/lib/avr6\libc.a(vfprintf_std.o) (strnlen_P)
d:/atmel studio/7.0/toolchain/avr8/avr8-gnu-toolchain/bin/../lib/gcc/avr/5.4.0/../../../../avr/lib/avr6\libc.a(memset.o)
                              d:/atmel studio/7.0/toolchain/avr8/avr8-gnu-toolchain/bin/../lib/gcc/avr/5.4.0/../../../../avr/lib/avr6\libc.a(calloc.o) (memset)
d:/atmel studio/7.0/toolchain/avr8/avr8-gnu-toolchain/bin/../lib/gcc/avr/5.4.0/../../../../avr/lib/avr6\libc.a(strnlen.o)
                              d:/atmel studio/7.0/toolchain/avr8/avr8-gnu-toolchain/bin/../lib/gcc/avr/5.4.0/../../../../avr/lib/avr6\libc.a(vfprintf_std.o) (strnlen)
d:/atmel studio/7.0/toolchain/avr8/avr8-gnu-toolchain/bin/../lib/gcc/avr/5.4.0/../../../../avr/lib/avr6\libc.a(ultoa_invert.o)
                              d:/atmel studio/7.0/toolchain/avr8/avr8-gnu-toolchain/bin/../lib/gcc/avr/5.4.0/../../../../avr/lib/avr6\libc.a(vfprintf_std.o) (__ultoa_invert)

Allocating common symbols
Common symbol       size              file

ptr_get             0x2               src/ASF/common/utils/stdio/read.o
__brkval            0x2               d:/atmel studio/7.0/toolchain/avr8/avr8-gnu-toolchain/bin/../lib/gcc/avr/5.4.0/../../../../avr/lib/avr6\libc.a(malloc.o)
ptr_put             0x2               src/ASF/common/utils/stdio/write.o
temp_ctx            0x2               src/lib/temperature.o
stdio_base          0x2               src/ASF/common/utils/stdio/write.o
__flp               0x2               d:/atmel studio/7.0/toolchain/avr8/avr8-gnu-toolchain/bin/../lib/gcc/avr/5.4.0/../../../../avr/lib/avr6\libc.a(malloc.o)
__iob               0x6               d:/atmel studio/7.0/toolchain/avr8/avr8-gnu-toolchain/bin/../lib/gcc/avr/5.4.0/../../../../avr/lib/avr6\libc.a(iob.o)
test_priv_data      0x2               src/ASF/common/utils/unit_test/suite.o

Discarded input sections

 .data          0x00000000        0x0 D:/Atmel Studio/7.0/Packs/atmel/ATmega_DFP/1.3.300/gcc/dev/atmega256rfr2/avr6/crtatmega256rfr2.o
 .bss           0x00000000        0x0 D:/Atmel Studio/7.0/Packs/atmel/ATmega_DFP/1.3.300/gcc/dev/atmega256rfr2/avr6/crtatmega256rfr2.o
 .group         0x00000000        0x8 src/ASF/common/services/clock/mega/sysclk.o
 .group         0x00000000        0x8 src/ASF/common/services/clock/mega/sysclk.o
 .group         0x00000000        0x8 src/ASF/common/services/clock/mega/sysclk.o
 .group         0x00000000        0x8 src/ASF/common/services/clock/mega/sysclk.o
 .group         0x00000000        0x8 src/ASF/common/services/clock/mega/sysclk.o
 .group         0x00000000        0x8 src/ASF/common/services/clock/mega/sysclk.o
 .group         0x00000000        0x8 src/ASF/common/services/clock/mega/sysclk.o
 .group         0x00000000        0x8 src/ASF/common/services/clock/mega/sysclk.o
 .group         0x00000000        0x8 src/ASF/common/services/clock/mega/sysclk.o
 .group         0x00000000        0x8 src/ASF/common/services/clock/mega/sysclk.o
 .group         0x00000000        0x8 src/ASF/common/services/clock/mega/sysclk.o
 .group         0x00000000        0x8 src/ASF/common/services/clock/mega/sysclk.o
 .group         0x00000000        0x8 src/ASF/common/services/clock/mega/sysclk.o
 .group         0x00000000        0x8 src/ASF/common/services/clock/mega/sysclk.o
 .group         0x00000000        0x8 src/ASF/common/services/clock/mega/sysclk.o
 .group         0x00000000        0x8 src/ASF/common/services/clock/mega/sysclk.o
Memory Configuration

Name             Origin             Length             Attributes
text             0x00000000         0x00100000         xr
data             0x00800200         0x0000fe00         rw !x
eeprom           0x00810000         0x00010000         rw !x
fuse             0x00820000         0x00000003         rw !x
lock             0x00830000         0x00000400         rw !x
signature        0x00840000         0x00000400         rw !x
user_signatures  0x00850000         0x00000400         rw !x
*default*        0x00000000         0xffffffff

Linker script and memory map

Address of section .data set to 0x800200
LOAD D:/Atmel Studio/7.0/Packs/atmel/ATmega_DFP/1.3.300/gcc/dev/atmega256rfr2/avr6/crtatmega256rfr2.o
LOAD src/ASF/common/services/clock/mega/sysclk.o
LOAD src/ASF/common/services/serial/usart_serial.o
LOAD src/ASF/common/utils/stdio/read.o
LOAD src/ASF/common/utils/stdio/write.o
LOAD src/ASF/common/utils/unit_test/suite.o
LOAD src/ASF/mega/boards/atmega256rfr2_xplained_pro/init.o
LOAD src/ASF/mega/drivers/twi/twi_megarf.o
LOAD src/ASF/mega/drivers/usart/usart_megarf.o
LOAD src/lib/temperature.o
LOAD src/main.o
START GROUP
LOAD d:/atmel studio/7.0/toolchain/avr8/avr8-gnu-toolchain/bin/../lib/gcc/avr/5.4.0/../../../../avr/lib/avr6\libm.a
END GROUP
START GROUP
LOAD d:/atmel studio/7.0/toolchain/avr8/avr8-gnu-toolchain/bin/../lib/gcc/avr/5.4.0/avr6\libgcc.a
LOAD d:/atmel studio/7.0/toolchain/avr8/avr8-gnu-toolchain/bin/../lib/gcc/avr/5.4.0/../../../../avr/lib/avr6\libm.a
LOAD d:/atmel studio/7.0/toolchain/avr8/avr8-gnu-toolchain/bin/../lib/gcc/avr/5.4.0/../../../../avr/lib/avr6\libc.a
LOAD D:/Atmel Studio/7.0/Packs/atmel/ATmega_DFP/1.3.300/gcc/dev/atmega256rfr2/avr6\libatmega256rfr2.a
END GROUP
                0x00000000                __TEXT_REGION_ORIGIN__ = DEFINED (__TEXT_REGION_ORIGIN__)?__TEXT_REGION_ORIGIN__:0x0
                0x00800200                __DATA_REGION_ORIGIN__ = DEFINED (__DATA_REGION_ORIGIN__)?__DATA_REGION_ORIGIN__:0x800200
                0x00100000                __TEXT_REGION_LENGTH__ = DEFINED (__TEXT_REGION_LENGTH__)?__TEXT_REGION_LENGTH__:0x100000
                0x0000fe00                __DATA_REGION_LENGTH__ = DEFINED (__DATA_REGION_LENGTH__)?__DATA_REGION_LENGTH__:0xfe00
                0x00010000                __EEPROM_REGION_LENGTH__ = DEFINED (__EEPROM_REGION_LENGTH__)?__EEPROM_REGION_LENGTH__:0x10000
                [0x00000003]                __FUSE_REGION_LENGTH__ = DEFINED (__FUSE_REGION_LENGTH__)?__FUSE_REGION_LENGTH__:0x400
                0x00000400                __LOCK_REGION_LENGTH__ = DEFINED (__LOCK_REGION_LENGTH__)?__LOCK_REGION_LENGTH__:0x400
                0x00000400                __SIGNATURE_REGION_LENGTH__ = DEFINED (__SIGNATURE_REGION_LENGTH__)?__SIGNATURE_REGION_LENGTH__:0x400
                0x00000400                __USER_SIGNATURE_REGION_LENGTH__ = DEFINED (__USER_SIGNATURE_REGION_LENGTH__)?__USER_SIGNATURE_REGION_LENGTH__:0x400

.hash
 *(.hash)

.dynsym
 *(.dynsym)

.dynstr
 *(.dynstr)

.gnu.version
 *(.gnu.version)

.gnu.version_d
 *(.gnu.version_d)

.gnu.version_r
 *(.gnu.version_r)

.rel.init
 *(.rel.init)

.rela.init
 *(.rela.init)

.rel.text
 *(.rel.text)
 *(.rel.text.*)
 *(.rel.gnu.linkonce.t*)

.rela.text
 *(.rela.text)
 *(.rela.text.*)
 *(.rela.gnu.linkonce.t*)

.rel.fini
 *(.rel.fini)

.rela.fini
 *(.rela.fini)

.rel.rodata
 *(.rel.rodata)
 *(.rel.rodata.*)
 *(.rel.gnu.linkonce.r*)

.rela.rodata
 *(.rela.rodata)
 *(.rela.rodata.*)
 *(.rela.gnu.linkonce.r*)

.rel.data
 *(.rel.data)
 *(.rel.data.*)
 *(.rel.gnu.linkonce.d*)

.rela.data
 *(.rela.data)
 *(.rela.data.*)
 *(.rela.gnu.linkonce.d*)

.rel.ctors
 *(.rel.ctors)

.rela.ctors
 *(.rela.ctors)

.rel.dtors
 *(.rel.dtors)

.rela.dtors
 *(.rela.dtors)

.rel.got
 *(.rel.got)

.rela.got
 *(.rela.got)

.rel.bss
 *(.rel.bss)

.rela.bss
 *(.rela.bss)

.rel.plt
 *(.rel.plt)

.rela.plt
 *(.rela.plt)

.text           0x00000000     0x1b6c
 *(.vectors)
 .vectors       0x00000000      0x134 D:/Atmel Studio/7.0/Packs/atmel/ATmega_DFP/1.3.300/gcc/dev/atmega256rfr2/avr6/crtatmega256rfr2.o
                0x00000000                __vector_default
                0x00000000                __vectors
 *(.vectors)
 *(.progmem.gcc*)
 .progmem.gcc_sw_table.__vector_39
                0x00000134      0x192 src/ASF/mega/drivers/twi/twi_megarf.o
                0x000002c6                . = ALIGN (0x2)
                0x000002c6                __trampolines_start = .
 *(.trampolines)
 .trampolines   0x000002c6        0x0 linker stubs
 *(.trampolines*)
                0x000002c6                __trampolines_end = .
 *libprintf_flt.a:*(.progmem.data)
 *libc.a:*(.progmem.data)
 *(.progmem*)
                0x000002c6                . = ALIGN (0x2)
 *(.jumptables)
 *(.jumptables*)
 *(.lowtext)
 *(.lowtext*)
                0x000002c6                __ctors_start = .
 *(.ctors)
                0x000002c6                __ctors_end = .
                0x000002c6                __dtors_start = .
 *(.dtors)
                0x000002c6                __dtors_end = .
 SORT(*)(.ctors)
 SORT(*)(.dtors)
 *(.init0)
 .init0         0x000002c6        0x0 D:/Atmel Studio/7.0/Packs/atmel/ATmega_DFP/1.3.300/gcc/dev/atmega256rfr2/avr6/crtatmega256rfr2.o
                0x000002c6                __init
 *(.init0)
 *(.init1)
 *(.init1)
 *(.init2)
 .init2         0x000002c6       0x10 D:/Atmel Studio/7.0/Packs/atmel/ATmega_DFP/1.3.300/gcc/dev/atmega256rfr2/avr6/crtatmega256rfr2.o
 *(.init2)
 *(.init3)
 *(.init3)
 *(.init4)
 .init4         0x000002d6       0x1a d:/atmel studio/7.0/toolchain/avr8/avr8-gnu-toolchain/bin/../lib/gcc/avr/5.4.0/avr6\libgcc.a(_copy_data.o)
                0x000002d6                __do_copy_data
 .init4         0x000002f0       0x10 d:/atmel studio/7.0/toolchain/avr8/avr8-gnu-toolchain/bin/../lib/gcc/avr/5.4.0/avr6\libgcc.a(_clear_bss.o)
                0x000002f0                __do_clear_bss
 *(.init4)
 *(.init5)
 *(.init5)
 *(.init6)
 *(.init6)
 *(.init7)
 *(.init7)
 *(.init8)
 *(.init8)
 *(.init9)
 .init9         0x00000300        0x6 D:/Atmel Studio/7.0/Packs/atmel/ATmega_DFP/1.3.300/gcc/dev/atmega256rfr2/avr6/crtatmega256rfr2.o
 *(.init9)
 *(.text)
 .text          0x00000306        0x2 D:/Atmel Studio/7.0/Packs/atmel/ATmega_DFP/1.3.300/gcc/dev/atmega256rfr2/avr6/crtatmega256rfr2.o
                0x00000306                __vector_38
                0x00000306                __vector_22
                0x00000306                __vector_63
                0x00000306                __vector_28
                0x00000306                __vector_67
                0x00000306                __vector_1
                0x00000306                __vector_32
                0x00000306                __vector_75
                0x00000306                __vector_71
                0x00000306                __vector_34
                0x00000306                __vector_62
                0x00000306                __vector_24
                0x00000306                __vector_12
                0x00000306                __vector_55
                0x00000306                __vector_69
                0x00000306                __vector_46
                0x00000306                __bad_interrupt
                0x00000306                __vector_72
                0x00000306                __vector_6
                0x00000306                __vector_31
                0x00000306                __vector_35
                0x00000306                __vector_74
                0x00000306                __vector_3
                0x00000306                __vector_23
                0x00000306                __vector_68
                0x00000306                __vector_30
                0x00000306                __vector_73
                0x00000306                __vector_45
                0x00000306                __vector_25
                0x00000306                __vector_61
                0x00000306                __vector_11
                0x00000306                __vector_54
                0x00000306                __vector_13
                0x00000306                __vector_17
                0x00000306                __vector_19
                0x00000306                __vector_56
                0x00000306                __vector_7
                0x00000306                __vector_49
                0x00000306                __vector_41
                0x00000306                __vector_64
                0x00000306                __vector_43
                0x00000306                __vector_27
                0x00000306                __vector_5
                0x00000306                __vector_33
                0x00000306                __vector_76
                0x00000306                __vector_47
                0x00000306                __vector_52
                0x00000306                __vector_37
                0x00000306                __vector_4
                0x00000306                __vector_44
                0x00000306                __vector_51
                0x00000306                __vector_9
                0x00000306                __vector_2
                0x00000306                __vector_21
                0x00000306                __vector_66
                0x00000306                __vector_36
                0x00000306                __vector_58
                0x00000306                __vector_70
                0x00000306                __vector_29
                0x00000306                __vector_60
                0x00000306                __vector_40
                0x00000306                __vector_8
                0x00000306                __vector_26
                0x00000306                __vector_48
                0x00000306                __vector_14
                0x00000306                __vector_57
                0x00000306                __vector_53
                0x00000306                __vector_10
                0x00000306                __vector_50
                0x00000306                __vector_16
                0x00000306                __vector_59
                0x00000306                __vector_18
                0x00000306                __vector_20
                0x00000306                __vector_42
                0x00000306                __vector_65
                0x00000308                . = ALIGN (0x2)
 *(.text.*)
 .text.sysclk_enable_module
                0x00000308       0x30 src/ASF/common/services/clock/mega/sysclk.o
                0x00000308                sysclk_enable_module
 .text._read    0x00000338       0x32 src/ASF/common/utils/stdio/read.o
                0x00000338                _read
 .text._write   0x0000036a       0x24 src/ASF/common/utils/stdio/write.o
                0x0000036a                _write
 .text.board_init
                0x0000038e        0xa src/ASF/mega/boards/atmega256rfr2_xplained_pro/init.o
                0x0000038e                board_init
 .text.twi_master_bus_reset
                0x00000398       0x12 src/ASF/mega/drivers/twi/twi_megarf.o
 .text.twi_master_write
                0x000003aa       0x58 src/ASF/mega/drivers/twi/twi_megarf.o
                0x000003aa                twi_master_write
 .text.twi_master_read
                0x00000402       0x66 src/ASF/mega/drivers/twi/twi_megarf.o
                0x00000402                twi_master_read
 .text.twi_master_init
                0x00000468       0x26 src/ASF/mega/drivers/twi/twi_megarf.o
                0x00000468                twi_master_init
 .text.__vector_39
                0x0000048e      0x3a2 src/ASF/mega/drivers/twi/twi_megarf.o
                0x0000048e                __vector_39
 .text.usart_putchar
                0x00000830        0xe src/ASF/mega/drivers/usart/usart_megarf.o
                0x00000830                usart_putchar
 .text.usart_getchar
                0x0000083e        0xc src/ASF/mega/drivers/usart/usart_megarf.o
                0x0000083e                usart_getchar
 .text.usart_set_baudrate
                0x0000084a      0x112 src/ASF/mega/drivers/usart/usart_megarf.o
                0x0000084a                usart_set_baudrate
 .text.usart_init_rs232
                0x0000095c       0x92 src/ASF/mega/drivers/usart/usart_megarf.o
                0x0000095c                usart_init_rs232
 .text.sensor_conf
                0x000009ee       0x6c src/lib/temperature.o
                0x000009ee                sensor_conf
 .text.read_temperature
                0x00000a5a       0x72 src/lib/temperature.o
                0x00000a5a                read_temperature
 .text.twi_init
                0x00000acc       0x5c src/lib/temperature.o
                0x00000acc                twi_init
 .text.adc_meastemp
                0x00000b28       0x30 src/lib/temperature.o
                0x00000b28                adc_meastemp
 .text.__portable_avr_delay_cycles
                0x00000b58       0x16 src/main.o
 .text.usart_serial_getchar
                0x00000b6e       0x10 src/main.o
 .text.usart_serial_putchar
                0x00000b7e        0x4 src/main.o
 .text.init_timer
                0x00000b82       0x16 src/main.o
                0x00000b82                init_timer
 .text.__vector_15
                0x00000b98      0x16a src/main.o
                0x00000b98                __vector_15
 .text.main     0x00000d02      0x1ea src/main.o
                0x00000d02                main
 .text.avr-libc.fplib
                0x00000eec        0xa d:/atmel studio/7.0/toolchain/avr8/avr8-gnu-toolchain/bin/../lib/gcc/avr/5.4.0/../../../../avr/lib/avr6\libm.a(addsf3.o)
                0x00000eec                __subsf3
                0x00000eee                __addsf3
 .text.avr-libc.fplib
                0x00000ef6       0xc0 d:/atmel studio/7.0/toolchain/avr8/avr8-gnu-toolchain/bin/../lib/gcc/avr/5.4.0/../../../../avr/lib/avr6\libm.a(addsf3x.o)
                0x00000f10                __addsf3x
 .text.avr-libc.fplib
                0x00000fb6       0x58 d:/atmel studio/7.0/toolchain/avr8/avr8-gnu-toolchain/bin/../lib/gcc/avr/5.4.0/../../../../avr/lib/avr6\libm.a(fixunssfsi.o)
                0x00000fb6                __fixunssfsi
 .text.avr-libc.fplib
                0x0000100e       0x7a d:/atmel studio/7.0/toolchain/avr8/avr8-gnu-toolchain/bin/../lib/gcc/avr/5.4.0/../../../../avr/lib/avr6\libm.a(floatsisf.o)
                0x0000100e                __floatunsisf
                0x00001012                __floatsisf
 .text.avr-libc.fplib
                0x00001088        0xc d:/atmel studio/7.0/toolchain/avr8/avr8-gnu-toolchain/bin/../lib/gcc/avr/5.4.0/../../../../avr/lib/avr6\libm.a(fp_inf.o)
                0x00001088                __fp_inf
 .text.avr-libc.fplib
                0x00001094        0x6 d:/atmel studio/7.0/toolchain/avr8/avr8-gnu-toolchain/bin/../lib/gcc/avr/5.4.0/../../../../avr/lib/avr6\libm.a(fp_nan.o)
                0x00001094                __fp_nan
 .text.avr-libc.fplib
                0x0000109a        0xe d:/atmel studio/7.0/toolchain/avr8/avr8-gnu-toolchain/bin/../lib/gcc/avr/5.4.0/../../../../avr/lib/avr6\libm.a(fp_pscA.o)
                0x0000109a                __fp_pscA
 .text.avr-libc.fplib
                0x000010a8        0xe d:/atmel studio/7.0/toolchain/avr8/avr8-gnu-toolchain/bin/../lib/gcc/avr/5.4.0/../../../../avr/lib/avr6\libm.a(fp_pscB.o)
                0x000010a8                __fp_pscB
 .text.avr-libc.fplib
                0x000010b6       0x22 d:/atmel studio/7.0/toolchain/avr8/avr8-gnu-toolchain/bin/../lib/gcc/avr/5.4.0/../../../../avr/lib/avr6\libm.a(fp_round.o)
                0x000010b6                __fp_round
 .text.avr-libc.fplib
                0x000010d8       0x44 d:/atmel studio/7.0/toolchain/avr8/avr8-gnu-toolchain/bin/../lib/gcc/avr/5.4.0/../../../../avr/lib/avr6\libm.a(fp_split3.o)
                0x000010d8                __fp_split3
                0x000010e8                __fp_splitA
 .text.avr-libc.fplib
                0x0000111c        0xe d:/atmel studio/7.0/toolchain/avr8/avr8-gnu-toolchain/bin/../lib/gcc/avr/5.4.0/../../../../avr/lib/avr6\libm.a(fp_zero.o)
                0x0000111c                __fp_zero
                0x0000111e                __fp_szero
 .text.avr-libc.fplib
                0x0000112a        0x4 d:/atmel studio/7.0/toolchain/avr8/avr8-gnu-toolchain/bin/../lib/gcc/avr/5.4.0/../../../../avr/lib/avr6\libm.a(mulsf3.o)
                0x0000112a                __mulsf3
 .text.avr-libc.fplib
                0x0000112e       0xc2 d:/atmel studio/7.0/toolchain/avr8/avr8-gnu-toolchain/bin/../lib/gcc/avr/5.4.0/../../../../avr/lib/avr6\libm.a(mulsf3x.o)
                0x00001142                __mulsf3x
                0x00001146                __mulsf3_pse
 .text.libgcc.div
                0x000011f0       0x44 d:/atmel studio/7.0/toolchain/avr8/avr8-gnu-toolchain/bin/../lib/gcc/avr/5.4.0/avr6\libgcc.a(_udivmodsi4.o)
                0x000011f0                __udivmodsi4
 .text.libgcc   0x00001234       0x10 d:/atmel studio/7.0/toolchain/avr8/avr8-gnu-toolchain/bin/../lib/gcc/avr/5.4.0/avr6\libgcc.a(_tablejump2.o)
                0x00001234                __tablejump2__
 .text.libgcc   0x00001244       0x18 d:/atmel studio/7.0/toolchain/avr8/avr8-gnu-toolchain/bin/../lib/gcc/avr/5.4.0/avr6\libgcc.a(_adddi3_s8.o)
                0x00001244                __adddi3_s8
 .text.libgcc   0x0000125c       0x18 d:/atmel studio/7.0/toolchain/avr8/avr8-gnu-toolchain/bin/../lib/gcc/avr/5.4.0/avr6\libgcc.a(_cmpdi2_s8.o)
                0x0000125c                __cmpdi2_s8
 .text.avr-libc
                0x00001274       0x94 d:/atmel studio/7.0/toolchain/avr8/avr8-gnu-toolchain/bin/../lib/gcc/avr/5.4.0/../../../../avr/lib/avr6\libc.a(fdevopen.o)
                0x00001274                fdevopen
 .text.avr-libc
                0x00001308       0x78 d:/atmel studio/7.0/toolchain/avr8/avr8-gnu-toolchain/bin/../lib/gcc/avr/5.4.0/../../../../avr/lib/avr6\libc.a(fputc.o)
                0x00001308                fputc
 .text.avr-libc
                0x00001380       0x26 d:/atmel studio/7.0/toolchain/avr8/avr8-gnu-toolchain/bin/../lib/gcc/avr/5.4.0/../../../../avr/lib/avr6\libc.a(printf.o)
                0x00001380                printf
 .text.avr-libc
                0x000013a6       0x5c d:/atmel studio/7.0/toolchain/avr8/avr8-gnu-toolchain/bin/../lib/gcc/avr/5.4.0/../../../../avr/lib/avr6\libc.a(sprintf.o)
                0x000013a6                sprintf
 .text.avr-libc
                0x00001402      0x3fa d:/atmel studio/7.0/toolchain/avr8/avr8-gnu-toolchain/bin/../lib/gcc/avr/5.4.0/../../../../avr/lib/avr6\libc.a(vfprintf_std.o)
                0x00001402                vfprintf
 .text.avr-libc
                0x000017fc       0x34 d:/atmel studio/7.0/toolchain/avr8/avr8-gnu-toolchain/bin/../lib/gcc/avr/5.4.0/../../../../avr/lib/avr6\libc.a(calloc.o)
                0x000017fc                calloc
 .text.avr-libc
                0x00001830      0x242 d:/atmel studio/7.0/toolchain/avr8/avr8-gnu-toolchain/bin/../lib/gcc/avr/5.4.0/../../../../avr/lib/avr6\libc.a(malloc.o)
                0x00001830                malloc
                0x00001960                free
 .text.avr-libc
                0x00001a72       0x16 d:/atmel studio/7.0/toolchain/avr8/avr8-gnu-toolchain/bin/../lib/gcc/avr/5.4.0/../../../../avr/lib/avr6\libc.a(strnlen_P.o)
                0x00001a72                strnlen_P
 .text.avr-libc
                0x00001a88        0xe d:/atmel studio/7.0/toolchain/avr8/avr8-gnu-toolchain/bin/../lib/gcc/avr/5.4.0/../../../../avr/lib/avr6\libc.a(memset.o)
                0x00001a88                memset
 .text.avr-libc
                0x00001a96       0x16 d:/atmel studio/7.0/toolchain/avr8/avr8-gnu-toolchain/bin/../lib/gcc/avr/5.4.0/../../../../avr/lib/avr6\libc.a(strnlen.o)
                0x00001a96                strnlen
 .text.avr-libc
                0x00001aac       0xbc d:/atmel studio/7.0/toolchain/avr8/avr8-gnu-toolchain/bin/../lib/gcc/avr/5.4.0/../../../../avr/lib/avr6\libc.a(ultoa_invert.o)
                0x00001aac                __ultoa_invert
                0x00001b68                . = ALIGN (0x2)
 *(.fini9)
 .fini9         0x00001b68        0x0 d:/atmel studio/7.0/toolchain/avr8/avr8-gnu-toolchain/bin/../lib/gcc/avr/5.4.0/avr6\libgcc.a(_exit.o)
                0x00001b68                _exit
                0x00001b68                exit
 *(.fini9)
 *(.fini8)
 *(.fini8)
 *(.fini7)
 *(.fini7)
 *(.fini6)
 *(.fini6)
 *(.fini5)
 *(.fini5)
 *(.fini4)
 *(.fini4)
 *(.fini3)
 *(.fini3)
 *(.fini2)
 *(.fini2)
 *(.fini1)
 *(.fini1)
 *(.fini0)
 .fini0         0x00001b68        0x4 d:/atmel studio/7.0/toolchain/avr8/avr8-gnu-toolchain/bin/../lib/gcc/avr/5.4.0/avr6\libgcc.a(_exit.o)
 *(.fini0)
                0x00001b6c                _etext = .

.data           0x00800200       0xde load address 0x00001b6c
                0x00800200                PROVIDE (__data_start, .)
 *(.data)
 .data          0x00800200        0x6 d:/atmel studio/7.0/toolchain/avr8/avr8-gnu-toolchain/bin/../lib/gcc/avr/5.4.0/../../../../avr/lib/avr6\libc.a(malloc.o)
                0x00800200                __malloc_heap_end
                0x00800202                __malloc_heap_start
                0x00800204                __malloc_margin
 *(.data*)
 *(.gnu.linkonce.d*)
 *(.rodata)
 *(.rodata*)
 .rodata.conf_data
                0x00800206        0x1 src/lib/temperature.o
                0x00800206                conf_data
 .rodata.str1.1
                0x00800207       0xd7 src/main.o
 *(.gnu.linkonce.r*)
                0x008002de                . = ALIGN (0x2)
                0x008002de                _edata = .
                0x008002de                PROVIDE (__data_end, .)

.bss            0x008002de       0x33
                0x008002de                PROVIDE (__bss_start, .)
 *(.bss)
 *(.bss*)
 .bss.twi_mode  0x008002de        0x1 src/ASF/mega/drivers/twi/twi_megarf.o
 .bss.twi_master_busy
                0x008002df        0x1 src/ASF/mega/drivers/twi/twi_megarf.o
 .bss.slave_transfer
                0x008002e0        0x7 src/ASF/mega/drivers/twi/twi_megarf.o
 .bss.master_transfer
                0x008002e7        0x8 src/ASF/mega/drivers/twi/twi_megarf.o
 .bss.count     0x008002ef        0x8 src/main.o
                0x008002ef                count
 .bss.time_Elapsed
                0x008002f7        0x8 src/main.o
                0x008002f7                time_Elapsed
 *(COMMON)
 COMMON         0x008002ff        0x2 src/ASF/common/utils/stdio/read.o
                0x008002ff                ptr_get
 COMMON         0x00800301        0x4 src/ASF/common/utils/stdio/write.o
                0x00800301                ptr_put
                0x00800303                stdio_base
 COMMON         0x00800305        0x2 src/lib/temperature.o
                0x00800305                temp_ctx
 COMMON         0x00800307        0x6 d:/atmel studio/7.0/toolchain/avr8/avr8-gnu-toolchain/bin/../lib/gcc/avr/5.4.0/../../../../avr/lib/avr6\libc.a(iob.o)
                0x00800307                __iob
 COMMON         0x0080030d        0x4 d:/atmel studio/7.0/toolchain/avr8/avr8-gnu-toolchain/bin/../lib/gcc/avr/5.4.0/../../../../avr/lib/avr6\libc.a(malloc.o)
                0x0080030d                __brkval
                0x0080030f                __flp
                0x00800311                PROVIDE (__bss_end, .)
                0x00001b6c                __data_load_start = LOADADDR (.data)
                0x00001c4a                __data_load_end = (__data_load_start + SIZEOF (.data))

.noinit         0x00800311        0x0
                [!provide]                PROVIDE (__noinit_start, .)
 *(.noinit*)
                [!provide]                PROVIDE (__noinit_end, .)
                0x00800311                _end = .
                0x00800311                PROVIDE (__heap_start, .)

.eeprom         0x00810000        0x0
 *(.eeprom*)
                0x00810000                __eeprom_end = .

.fuse
 *(.fuse)
 *(.lfuse)
 *(.hfuse)
 *(.efuse)

.lock
 *(.lock*)

.signature
 *(.signature*)

.user_signatures
 *(.user_signatures*)

.stab
 *(.stab)

.stabstr
 *(.stabstr)

.stab.excl
 *(.stab.excl)

.stab.exclstr
 *(.stab.exclstr)

.stab.index
 *(.stab.index)

.stab.indexstr
 *(.stab.indexstr)

.comment        0x00000000       0x5c
 *(.comment)
 .comment       0x00000000       0x30 src/ASF/common/services/clock/mega/sysclk.o
                                 0x31 (size before relaxing)
 .comment       0x00000030       0x31 src/ASF/common/utils/stdio/read.o
 .comment       0x00000030       0x31 src/ASF/common/utils/stdio/write.o
 .comment       0x00000030       0x31 src/ASF/mega/boards/atmega256rfr2_xplained_pro/init.o
 .comment       0x00000030       0x31 src/ASF/mega/drivers/twi/twi_megarf.o
 .comment       0x00000030       0x31 src/ASF/mega/drivers/usart/usart_megarf.o
 .comment       0x00000030       0x31 src/lib/temperature.o
 .comment       0x00000030       0x31 src/main.o
 .comment       0x00000030       0x31 d:/atmel studio/7.0/toolchain/avr8/avr8-gnu-toolchain/bin/../lib/gcc/avr/5.4.0/../../../../avr/lib/avr6\libc.a(fdevopen.o)
 .comment       0x00000030       0x31 d:/atmel studio/7.0/toolchain/avr8/avr8-gnu-toolchain/bin/../lib/gcc/avr/5.4.0/../../../../avr/lib/avr6\libc.a(fputc.o)
 .comment       0x00000030       0x31 d:/atmel studio/7.0/toolchain/avr8/avr8-gnu-toolchain/bin/../lib/gcc/avr/5.4.0/../../../../avr/lib/avr6\libc.a(iob.o)
 .comment       0x00000030       0x31 d:/atmel studio/7.0/toolchain/avr8/avr8-gnu-toolchain/bin/../lib/gcc/avr/5.4.0/../../../../avr/lib/avr6\libc.a(printf.o)
 .comment       0x00000030       0x31 d:/atmel studio/7.0/toolchain/avr8/avr8-gnu-toolchain/bin/../lib/gcc/avr/5.4.0/../../../../avr/lib/avr6\libc.a(sprintf.o)
 .comment       0x00000030       0x2c d:/atmel studio/7.0/toolchain/avr8/avr8-gnu-toolchain/bin/../lib/gcc/avr/5.4.0/../../../../avr/lib/avr6\libc.a(vfprintf_std.o)
                                 0x2d (size before relaxing)
 .comment       0x0000005c       0x31 d:/atmel studio/7.0/toolchain/avr8/avr8-gnu-toolchain/bin/../lib/gcc/avr/5.4.0/../../../../avr/lib/avr6\libc.a(calloc.o)
 .comment       0x0000005c       0x31 d:/atmel studio/7.0/toolchain/avr8/avr8-gnu-toolchain/bin/../lib/gcc/avr/5.4.0/../../../../avr/lib/avr6\libc.a(malloc.o)

.note.gnu.avr.deviceinfo
                0x00000000       0x40
 .note.gnu.avr.deviceinfo
                0x00000000       0x40 D:/Atmel Studio/7.0/Packs/atmel/ATmega_DFP/1.3.300/gcc/dev/atmega256rfr2/avr6/crtatmega256rfr2.o

.note.gnu.build-id
 *(.note.gnu.build-id)

.debug
 *(.debug)

.line
 *(.line)

.debug_srcinfo
 *(.debug_srcinfo)

.debug_sfnames
 *(.debug_sfnames)

.debug_aranges  0x00000000      0x1d0
 *(.debug_aranges)
 .debug_aranges
                0x00000000       0x30 src/ASF/common/services/clock/mega/sysclk.o
 .debug_aranges
                0x00000030       0x20 src/ASF/common/utils/stdio/read.o
 .debug_aranges
                0x00000050       0x20 src/ASF/common/utils/stdio/write.o
 .debug_aranges
                0x00000070       0x20 src/ASF/mega/boards/atmega256rfr2_xplained_pro/init.o
 .debug_aranges
                0x00000090       0x70 src/ASF/mega/drivers/twi/twi_megarf.o
 .debug_aranges
                0x00000100       0x50 src/ASF/mega/drivers/usart/usart_megarf.o
 .debug_aranges
                0x00000150       0x38 src/lib/temperature.o
 .debug_aranges
                0x00000188       0x48 src/main.o

.debug_pubnames
 *(.debug_pubnames)

.debug_info     0x00000000     0x43c3
 *(.debug_info .gnu.linkonce.wi.*)
 .debug_info    0x00000000     0x13e6 D:/Atmel Studio/7.0/Packs/atmel/ATmega_DFP/1.3.300/gcc/dev/atmega256rfr2/avr6/crtatmega256rfr2.o
 .debug_info    0x000013e6      0x351 src/ASF/common/services/clock/mega/sysclk.o
 .debug_info    0x00001737      0x195 src/ASF/common/utils/stdio/read.o
 .debug_info    0x000018cc      0x195 src/ASF/common/utils/stdio/write.o
 .debug_info    0x00001a61      0x31c src/ASF/mega/boards/atmega256rfr2_xplained_pro/init.o
 .debug_info    0x00001d7d      0xb37 src/ASF/mega/drivers/twi/twi_megarf.o
 .debug_info    0x000028b4      0xc80 src/ASF/mega/drivers/usart/usart_megarf.o
 .debug_info    0x00003534      0x4f5 src/lib/temperature.o
 .debug_info    0x00003a29      0x99a src/main.o

.debug_abbrev   0x00000000     0x24b2
 *(.debug_abbrev)
 .debug_abbrev  0x00000000     0x12d6 D:/Atmel Studio/7.0/Packs/atmel/ATmega_DFP/1.3.300/gcc/dev/atmega256rfr2/avr6/crtatmega256rfr2.o
 .debug_abbrev  0x000012d6      0x1ea src/ASF/common/services/clock/mega/sysclk.o
 .debug_abbrev  0x000014c0      0x111 src/ASF/common/utils/stdio/read.o
 .debug_abbrev  0x000015d1       0xfc src/ASF/common/utils/stdio/write.o
 .debug_abbrev  0x000016cd      0x173 src/ASF/mega/boards/atmega256rfr2_xplained_pro/init.o
 .debug_abbrev  0x00001840      0x304 src/ASF/mega/drivers/twi/twi_megarf.o
 .debug_abbrev  0x00001b44      0x3b1 src/ASF/mega/drivers/usart/usart_megarf.o
 .debug_abbrev  0x00001ef5      0x250 src/lib/temperature.o
 .debug_abbrev  0x00002145      0x36d src/main.o

.debug_line     0x00000000     0x3216
 *(.debug_line .debug_line.* .debug_line_end)
 .debug_line    0x00000000      0x271 D:/Atmel Studio/7.0/Packs/atmel/ATmega_DFP/1.3.300/gcc/dev/atmega256rfr2/avr6/crtatmega256rfr2.o
 .debug_line    0x00000271      0x57f src/ASF/common/services/clock/mega/sysclk.o
 .debug_line    0x000007f0      0x322 src/ASF/common/utils/stdio/read.o
 .debug_line    0x00000b12      0x329 src/ASF/common/utils/stdio/write.o
 .debug_line    0x00000e3b      0x46d src/ASF/mega/boards/atmega256rfr2_xplained_pro/init.o
 .debug_line    0x000012a8      0x829 src/ASF/mega/drivers/twi/twi_megarf.o
 .debug_line    0x00001ad1      0x7f2 src/ASF/mega/drivers/usart/usart_megarf.o
 .debug_line    0x000022c3      0x669 src/lib/temperature.o
 .debug_line    0x0000292c      0x8ea src/main.o

.debug_frame    0x00000000      0x500
 *(.debug_frame)
 .debug_frame   0x00000000       0x74 src/ASF/common/services/clock/mega/sysclk.o
 .debug_frame   0x00000074       0x34 src/ASF/common/utils/stdio/read.o
 .debug_frame   0x000000a8       0x24 src/ASF/common/utils/stdio/write.o
 .debug_frame   0x000000cc       0x24 src/ASF/mega/boards/atmega256rfr2_xplained_pro/init.o
 .debug_frame   0x000000f0      0x10c src/ASF/mega/drivers/twi/twi_megarf.o
 .debug_frame   0x000001fc      0x180 src/ASF/mega/drivers/usart/usart_megarf.o
 .debug_frame   0x0000037c       0x90 src/lib/temperature.o
 .debug_frame   0x0000040c       0xf4 src/main.o

.debug_str      0x00000000    0x1a1bb
 *(.debug_str)
 .debug_str     0x00000000      0x7f7 D:/Atmel Studio/7.0/Packs/atmel/ATmega_DFP/1.3.300/gcc/dev/atmega256rfr2/avr6/crtatmega256rfr2.o
 .debug_str     0x000007f7    0x17782 src/ASF/common/services/clock/mega/sysclk.o
                              0x179fd (size before relaxing)
 .debug_str     0x00017f79       0x38 src/ASF/common/utils/stdio/read.o
                              0x16748 (size before relaxing)
 .debug_str     0x00017fb1       0x2e src/ASF/common/utils/stdio/write.o
                              0x1674a (size before relaxing)
 .debug_str     0x00017fdf      0x194 src/ASF/mega/boards/atmega256rfr2_xplained_pro/init.o
                              0x1773e (size before relaxing)
 .debug_str     0x00018173      0x979 src/ASF/mega/drivers/twi/twi_megarf.o
                              0x170c3 (size before relaxing)
 .debug_str     0x00018aec      0x9a8 src/ASF/mega/drivers/usart/usart_megarf.o
                              0x185c8 (size before relaxing)
 .debug_str     0x00019494      0x5ca src/lib/temperature.o
                              0x182f2 (size before relaxing)
 .debug_str     0x00019a5e      0x75d src/main.o
                              0x19130 (size before relaxing)

.debug_loc      0x00000000     0x14bb
 *(.debug_loc)
 .debug_loc     0x00000000      0x1f2 src/ASF/common/services/clock/mega/sysclk.o
 .debug_loc     0x000001f2       0x6e src/ASF/common/utils/stdio/read.o
 .debug_loc     0x00000260       0x52 src/ASF/common/utils/stdio/write.o
 .debug_loc     0x000002b2       0x51 src/ASF/mega/boards/atmega256rfr2_xplained_pro/init.o
 .debug_loc     0x00000303      0x386 src/ASF/mega/drivers/twi/twi_megarf.o
 .debug_loc     0x00000689      0x9cd src/ASF/mega/drivers/usart/usart_megarf.o
 .debug_loc     0x00001056      0x14b src/lib/temperature.o
 .debug_loc     0x000011a1      0x31a src/main.o

.debug_macinfo
 *(.debug_macinfo)

.debug_weaknames
 *(.debug_weaknames)

.debug_funcnames
 *(.debug_funcnames)

.debug_typenames
 *(.debug_typenames)

.debug_varnames
 *(.debug_varnames)

.debug_pubtypes
 *(.debug_pubtypes)

.debug_ranges   0x00000000      0x188
 *(.debug_ranges)
 .debug_ranges  0x00000000       0x20 src/ASF/common/services/clock/mega/sysclk.o
 .debug_ranges  0x00000020       0x10 src/ASF/common/utils/stdio/read.o
 .debug_ranges  0x00000030       0x10 src/ASF/common/utils/stdio/write.o
 .debug_ranges  0x00000040       0x10 src/ASF/mega/boards/atmega256rfr2_xplained_pro/init.o
 .debug_ranges  0x00000050       0x60 src/ASF/mega/drivers/twi/twi_megarf.o
 .debug_ranges  0x000000b0       0x78 src/ASF/mega/drivers/usart/usart_megarf.o
 .debug_ranges  0x00000128       0x28 src/lib/temperature.o
 .debug_ranges  0x00000150       0x38 src/main.o

.debug_macro    0x00000000     0x792f
 *(.debug_macro)
 .debug_macro   0x00000000      0x1cc src/ASF/common/services/clock/mega/sysclk.o
 .debug_macro   0x000001cc      0xa84 src/ASF/common/services/clock/mega/sysclk.o
 .debug_macro   0x00000c50       0x10 src/ASF/common/services/clock/mega/sysclk.o
 .debug_macro   0x00000c60      0x1c9 src/ASF/common/services/clock/mega/sysclk.o
 .debug_macro   0x00000e29      0x2fc src/ASF/common/services/clock/mega/sysclk.o
 .debug_macro   0x00001125       0x9e src/ASF/common/services/clock/mega/sysclk.o
 .debug_macro   0x000011c3     0x37d1 src/ASF/common/services/clock/mega/sysclk.o
 .debug_macro   0x00004994      0x219 src/ASF/common/services/clock/mega/sysclk.o
 .debug_macro   0x00004bad       0xd9 src/ASF/common/services/clock/mega/sysclk.o
 .debug_macro   0x00004c86       0x34 src/ASF/common/services/clock/mega/sysclk.o
 .debug_macro   0x00004cba       0x18 src/ASF/common/services/clock/mega/sysclk.o
 .debug_macro   0x00004cd2       0x6c src/ASF/common/services/clock/mega/sysclk.o
 .debug_macro   0x00004d3e       0x22 src/ASF/common/services/clock/mega/sysclk.o
 .debug_macro   0x00004d60      0x16d src/ASF/common/services/clock/mega/sysclk.o
 .debug_macro   0x00004ecd       0x1c src/ASF/common/services/clock/mega/sysclk.o
 .debug_macro   0x00004ee9       0x35 src/ASF/common/services/clock/mega/sysclk.o
 .debug_macro   0x00004f1e       0x66 src/ASF/common/services/clock/mega/sysclk.o
 .debug_macro   0x00004f84      0x708 src/ASF/common/services/clock/mega/sysclk.o
 .debug_macro   0x0000568c       0x2e src/ASF/common/services/clock/mega/sysclk.o
 .debug_macro   0x000056ba       0x58 src/ASF/common/services/clock/mega/sysclk.o
 .debug_macro   0x00005712       0x10 src/ASF/common/services/clock/mega/sysclk.o
 .debug_macro   0x00005722       0xf2 src/ASF/common/services/clock/mega/sysclk.o
 .debug_macro   0x00005814       0x5f src/ASF/common/services/clock/mega/sysclk.o
 .debug_macro   0x00005873       0x12 src/ASF/common/services/clock/mega/sysclk.o
 .debug_macro   0x00005885       0x69 src/ASF/common/services/clock/mega/sysclk.o
 .debug_macro   0x000058ee       0x31 src/ASF/common/services/clock/mega/sysclk.o
 .debug_macro   0x0000591f       0x10 src/ASF/common/services/clock/mega/sysclk.o
 .debug_macro   0x0000592f      0x175 src/ASF/common/services/clock/mega/sysclk.o
 .debug_macro   0x00005aa4       0x40 src/ASF/common/services/clock/mega/sysclk.o
 .debug_macro   0x00005ae4      0x100 src/ASF/common/services/clock/mega/sysclk.o
 .debug_macro   0x00005be4       0x3a src/ASF/common/services/clock/mega/sysclk.o
 .debug_macro   0x00005c1e      0x2d8 src/ASF/common/services/clock/mega/sysclk.o
 .debug_macro   0x00005ef6       0x6e src/ASF/common/services/clock/mega/sysclk.o
 .debug_macro   0x00005f64       0x40 src/ASF/common/services/clock/mega/sysclk.o
 .debug_macro   0x00005fa4       0x16 src/ASF/common/services/clock/mega/sysclk.o
 .debug_macro   0x00005fba       0x34 src/ASF/common/services/clock/mega/sysclk.o
 .debug_macro   0x00005fee       0xc9 src/ASF/common/services/clock/mega/sysclk.o
 .debug_macro   0x000060b7      0x156 src/ASF/common/utils/stdio/read.o
 .debug_macro   0x0000620d      0x156 src/ASF/common/utils/stdio/write.o
 .debug_macro   0x00006363      0x1b9 src/ASF/mega/boards/atmega256rfr2_xplained_pro/init.o
 .debug_macro   0x0000651c      0x2d2 src/ASF/mega/boards/atmega256rfr2_xplained_pro/init.o
 .debug_macro   0x000067ee       0x10 src/ASF/mega/boards/atmega256rfr2_xplained_pro/init.o
 .debug_macro   0x000067fe      0x185 src/ASF/mega/drivers/twi/twi_megarf.o
 .debug_macro   0x00006983       0xac src/ASF/mega/drivers/twi/twi_megarf.o
 .debug_macro   0x00006a2f      0x1df src/ASF/mega/drivers/usart/usart_megarf.o
 .debug_macro   0x00006c0e      0x302 src/ASF/mega/drivers/usart/usart_megarf.o
 .debug_macro   0x00006f10      0x1c4 src/ASF/mega/drivers/usart/usart_megarf.o
 .debug_macro   0x000070d4      0x214 src/lib/temperature.o
 .debug_macro   0x000072e8      0x10e src/lib/temperature.o
 .debug_macro   0x000073f6       0x28 src/lib/temperature.o
 .debug_macro   0x0000741e       0x86 src/lib/temperature.o
 .debug_macro   0x000074a4       0x10 src/lib/temperature.o
 .debug_macro   0x000074b4      0x160 src/lib/temperature.o
 .debug_macro   0x00007614      0x299 src/main.o
 .debug_macro   0x000078ad       0x22 src/main.o
 .debug_macro   0x000078cf       0x28 src/main.o
 .debug_macro   0x000078f7       0x22 src/main.o
 .debug_macro   0x00007919       0x16 src/main.o
OUTPUT(TWI_UNIT_TESTS3.elf elf32-avr)
LOAD linker stubs
